:100000000C9434000C9451000C9451000C94510049
:100010000C9451000C9451000C9451000C9451001C
:100020000C9451000C9451000C9451000C9451000C
:100030000C9451000C9451000C9451000C945100FC
:100040000C9451000C9451000C9451000C945100EC
:100050000C9451000C9451000C9451000C945100DC
:100060000C9451000C94510011241FBECFEFD8E026
:10007000DEBFCDBF11E0A0E0B1E0E2E5F1E002C0FB
:1000800005900D92A230B107D9F721E0A2E0B1E0CE
:1000900001C01D92A330B207E1F70E949A000C94B0
:1000A000A7000C9400002198569A0895909102019F
:1000B00080910001890F809302018F3F39F08111F7
:1000C00003C091E09093000190E0089580930001B7
:1000D00090E0089584B58F7B84BD84B5806884BD2D
:1000E00084B5816084BD84B5826084BD85B5877F19
:1000F00085BD85B5816085BD85B5826085BD85B5C9
:100100008B7F85BD0895E0EBF0E080818160808386
:10011000808182608083E1EBF0E08081877F808353
:10012000808181608083808182608083808184601F
:10013000808308950E946A000E9483000E945300F9
:10014000B99BFECF0E94560087BDB99AF9CFF894AB
:02015000FFCFDF
:020152000100AA
:00000001FF
